{
  "_format": "hh-sol-artifact-1",
  "contractName": "CertificateNFT",
  "sourceName": "contracts/CertificateNFT.sol",
  "abi": [
    {
      "inputs": [],
      "stateMutability": "nonpayable",
      "type": "constructor"
    },
    {
      "anonymous": false,
      "inputs": [
        {
          "indexed": true,
          "internalType": "address",
          "name": "owner",
          "type": "address"
        },
        {
          "indexed": true,
          "internalType": "address",
          "name": "approved",
          "type": "address"
        },
        {
          "indexed": true,
          "internalType": "uint256",
          "name": "tokenId",
          "type": "uint256"
        }
      ],
      "name": "Approval",
      "type": "event"
    },
    {
      "anonymous": false,
      "inputs": [
        {
          "indexed": true,
          "internalType": "address",
          "name": "owner",
          "type": "address"
        },
        {
          "indexed": true,
          "internalType": "address",
          "name": "operator",
          "type": "address"
        },
        {
          "indexed": false,
          "internalType": "bool",
          "name": "approved",
          "type": "bool"
        }
      ],
      "name": "ApprovalForAll",
      "type": "event"
    },
    {
      "anonymous": false,
      "inputs": [
        {
          "indexed": true,
          "internalType": "uint256",
          "name": "tokenId",
          "type": "uint256"
        },
        {
          "indexed": false,
          "internalType": "string",
          "name": "studentName",
          "type": "string"
        },
        {
          "indexed": false,
          "internalType": "string",
          "name": "degree",
          "type": "string"
        },
        {
          "indexed": false,
          "internalType": "string",
          "name": "institution",
          "type": "string"
        }
      ],
      "name": "CertificateIssued",
      "type": "event"
    },
    {
      "anonymous": false,
      "inputs": [
        {
          "indexed": true,
          "internalType": "uint256",
          "name": "tokenId",
          "type": "uint256"
        }
      ],
      "name": "CertificateRevoked",
      "type": "event"
    },
    {
      "anonymous": false,
      "inputs": [
        {
          "indexed": true,
          "internalType": "address",
          "name": "previousOwner",
          "type": "address"
        },
        {
          "indexed": true,
          "internalType": "address",
          "name": "newOwner",
          "type": "address"
        }
      ],
      "name": "OwnershipTransferred",
      "type": "event"
    },
    {
      "anonymous": false,
      "inputs": [
        {
          "indexed": true,
          "internalType": "address",
          "name": "from",
          "type": "address"
        },
        {
          "indexed": true,
          "internalType": "address",
          "name": "to",
          "type": "address"
        },
        {
          "indexed": true,
          "internalType": "uint256",
          "name": "tokenId",
          "type": "uint256"
        }
      ],
      "name": "Transfer",
      "type": "event"
    },
    {
      "inputs": [
        {
          "internalType": "address",
          "name": "to",
          "type": "address"
        },
        {
          "internalType": "uint256",
          "name": "tokenId",
          "type": "uint256"
        }
      ],
      "name": "approve",
      "outputs": [],
      "stateMutability": "nonpayable",
      "type": "function"
    },
    {
      "inputs": [
        {
          "internalType": "address",
          "name": "owner",
          "type": "address"
        }
      ],
      "name": "balanceOf",
      "outputs": [
        {
          "internalType": "uint256",
          "name": "",
          "type": "uint256"
        }
      ],
      "stateMutability": "view",
      "type": "function"
    },
    {
      "inputs": [
        {
          "internalType": "uint256",
          "name": "",
          "type": "uint256"
        }
      ],
      "name": "certificates",
      "outputs": [
        {
          "internalType": "string",
          "name": "studentName",
          "type": "string"
        },
        {
          "internalType": "string",
          "name": "degree",
          "type": "string"
        },
        {
          "internalType": "string",
          "name": "institution",
          "type": "string"
        },
        {
          "internalType": "string",
          "name": "graduationDate",
          "type": "string"
        },
        {
          "internalType": "string",
          "name": "ipfsHash",
          "type": "string"
        },
        {
          "internalType": "bool",
          "name": "isValid",
          "type": "bool"
        }
      ],
      "stateMutability": "view",
      "type": "function"
    },
    {
      "inputs": [
        {
          "internalType": "uint256",
          "name": "tokenId",
          "type": "uint256"
        }
      ],
      "name": "getApproved",
      "outputs": [
        {
          "internalType": "address",
          "name": "",
          "type": "address"
        }
      ],
      "stateMutability": "view",
      "type": "function"
    },
    {
      "inputs": [
        {
          "internalType": "uint256",
          "name": "tokenId",
          "type": "uint256"
        }
      ],
      "name": "getCertificate",
      "outputs": [
        {
          "components": [
            {
              "internalType": "string",
              "name": "studentName",
              "type": "string"
            },
            {
              "internalType": "string",
              "name": "degree",
              "type": "string"
            },
            {
              "internalType": "string",
              "name": "institution",
              "type": "string"
            },
            {
              "internalType": "string",
              "name": "graduationDate",
              "type": "string"
            },
            {
              "internalType": "string",
              "name": "ipfsHash",
              "type": "string"
            },
            {
              "internalType": "bool",
              "name": "isValid",
              "type": "bool"
            }
          ],
          "internalType": "struct CertificateNFT.Certificate",
          "name": "",
          "type": "tuple"
        }
      ],
      "stateMutability": "view",
      "type": "function"
    },
    {
      "inputs": [
        {
          "internalType": "address",
          "name": "owner",
          "type": "address"
        },
        {
          "internalType": "address",
          "name": "operator",
          "type": "address"
        }
      ],
      "name": "isApprovedForAll",
      "outputs": [
        {
          "internalType": "bool",
          "name": "",
          "type": "bool"
        }
      ],
      "stateMutability": "view",
      "type": "function"
    },
    {
      "inputs": [
        {
          "internalType": "address",
          "name": "recipient",
          "type": "address"
        },
        {
          "internalType": "string",
          "name": "studentName",
          "type": "string"
        },
        {
          "internalType": "string",
          "name": "degree",
          "type": "string"
        },
        {
          "internalType": "string",
          "name": "institution",
          "type": "string"
        },
        {
          "internalType": "string",
          "name": "graduationDate",
          "type": "string"
        },
        {
          "internalType": "string",
          "name": "ipfsHash",
          "type": "string"
        }
      ],
      "name": "issueCertificate",
      "outputs": [
        {
          "internalType": "uint256",
          "name": "",
          "type": "uint256"
        }
      ],
      "stateMutability": "nonpayable",
      "type": "function"
    },
    {
      "inputs": [],
      "name": "name",
      "outputs": [
        {
          "internalType": "string",
          "name": "",
          "type": "string"
        }
      ],
      "stateMutability": "view",
      "type": "function"
    },
    {
      "inputs": [],
      "name": "owner",
      "outputs": [
        {
          "internalType": "address",
          "name": "",
          "type": "address"
        }
      ],
      "stateMutability": "view",
      "type": "function"
    },
    {
      "inputs": [
        {
          "internalType": "uint256",
          "name": "tokenId",
          "type": "uint256"
        }
      ],
      "name": "ownerOf",
      "outputs": [
        {
          "internalType": "address",
          "name": "",
          "type": "address"
        }
      ],
      "stateMutability": "view",
      "type": "function"
    },
    {
      "inputs": [],
      "name": "renounceOwnership",
      "outputs": [],
      "stateMutability": "nonpayable",
      "type": "function"
    },
    {
      "inputs": [
        {
          "internalType": "uint256",
          "name": "tokenId",
          "type": "uint256"
        }
      ],
      "name": "revokeCertificate",
      "outputs": [],
      "stateMutability": "nonpayable",
      "type": "function"
    },
    {
      "inputs": [
        {
          "internalType": "address",
          "name": "from",
          "type": "address"
        },
        {
          "internalType": "address",
          "name": "to",
          "type": "address"
        },
        {
          "internalType": "uint256",
          "name": "tokenId",
          "type": "uint256"
        }
      ],
      "name": "safeTransferFrom",
      "outputs": [],
      "stateMutability": "nonpayable",
      "type": "function"
    },
    {
      "inputs": [
        {
          "internalType": "address",
          "name": "from",
          "type": "address"
        },
        {
          "internalType": "address",
          "name": "to",
          "type": "address"
        },
        {
          "internalType": "uint256",
          "name": "tokenId",
          "type": "uint256"
        },
        {
          "internalType": "bytes",
          "name": "data",
          "type": "bytes"
        }
      ],
      "name": "safeTransferFrom",
      "outputs": [],
      "stateMutability": "nonpayable",
      "type": "function"
    },
    {
      "inputs": [
        {
          "internalType": "address",
          "name": "operator",
          "type": "address"
        },
        {
          "internalType": "bool",
          "name": "approved",
          "type": "bool"
        }
      ],
      "name": "setApprovalForAll",
      "outputs": [],
      "stateMutability": "nonpayable",
      "type": "function"
    },
    {
      "inputs": [
        {
          "internalType": "bytes4",
          "name": "interfaceId",
          "type": "bytes4"
        }
      ],
      "name": "supportsInterface",
      "outputs": [
        {
          "internalType": "bool",
          "name": "",
          "type": "bool"
        }
      ],
      "stateMutability": "view",
      "type": "function"
    },
    {
      "inputs": [],
      "name": "symbol",
      "outputs": [
        {
          "internalType": "string",
          "name": "",
          "type": "string"
        }
      ],
      "stateMutability": "view",
      "type": "function"
    },
    {
      "inputs": [
        {
          "internalType": "uint256",
          "name": "tokenId",
          "type": "uint256"
        }
      ],
      "name": "tokenURI",
      "outputs": [
        {
          "internalType": "string",
          "name": "",
          "type": "string"
        }
      ],
      "stateMutability": "view",
      "type": "function"
    },
    {
      "inputs": [
        {
          "internalType": "address",
          "name": "from",
          "type": "address"
        },
        {
          "internalType": "address",
          "name": "to",
          "type": "address"
        },
        {
          "internalType": "uint256",
          "name": "tokenId",
          "type": "uint256"
        }
      ],
      "name": "transferFrom",
      "outputs": [],
      "stateMutability": "nonpayable",
      "type": "function"
    },
    {
      "inputs": [
        {
          "internalType": "address",
          "name": "newOwner",
          "type": "address"
        }
      ],
      "name": "transferOwnership",
      "outputs": [],
      "stateMutability": "nonpayable",
      "type": "function"
    },
    {
      "inputs": [
        {
          "internalType": "string",
          "name": "",
          "type": "string"
        }
      ],
      "name": "usedIpfsHashes",
      "outputs": [
        {
          "internalType": "bool",
          "name": "",
          "type": "bool"
        }
      ],
      "stateMutability": "view",
      "type": "function"
    },
    {
      "inputs": [
        {
          "internalType": "uint256",
          "name": "tokenId",
          "type": "uint256"
        }
      ],
      "name": "verifyCertificate",
      "outputs": [
        {
          "internalType": "bool",
          "name": "",
          "type": "bool"
        }
      ],
      "stateMutability": "view",
      "type": "function"
    }
  ],
  "bytecode": "0x60806040523480156200001157600080fd5b506040518060400160405280601681526020017f556e6976657273697479204365727469666963617465000000000000000000008152506040518060400160405280600581526020017f554345525400000000000000000000000000000000000000000000000000000081525081600090816200008f91906200041a565b508060019081620000a191906200041a565b505050620000c4620000b8620000d260201b60201c565b620000da60201b60201c565b600160078190555062000501565b600033905090565b6000600660009054906101000a900473ffffffffffffffffffffffffffffffffffffffff16905081600660006101000a81548173ffffffffffffffffffffffffffffffffffffffff021916908373ffffffffffffffffffffffffffffffffffffffff1602179055508173ffffffffffffffffffffffffffffffffffffffff168173ffffffffffffffffffffffffffffffffffffffff167f8be0079c531659141344cd1fd0a4f28419497f9722a3daafe3b4186f6b6457e060405160405180910390a35050565b600081519050919050565b7f4e487b7100000000000000000000000000000000000000000000000000000000600052604160045260246000fd5b7f4e487b7100000000000000000000000000000000000000000000000000000000600052602260045260246000fd5b600060028204905060018216806200022257607f821691505b602082108103620002385762000237620001da565b5b50919050565b60008190508160005260206000209050919050565b60006020601f8301049050919050565b600082821b905092915050565b600060088302620002a27fffffffffffffffffffffffffffffffffffffffffffffffffffffffffffffffff8262000263565b620002ae868362000263565b95508019841693508086168417925050509392505050565b6000819050919050565b6000819050919050565b6000620002fb620002f5620002ef84620002c6565b620002d0565b620002c6565b9050919050565b6000819050919050565b6200031783620002da565b6200032f620003268262000302565b84845462000270565b825550505050565b600090565b6200034662000337565b620003538184846200030c565b505050565b5b818110156200037b576200036f6000826200033c565b60018101905062000359565b5050565b601f821115620003ca5762000394816200023e565b6200039f8462000253565b81016020851015620003af578190505b620003c7620003be8562000253565b83018262000358565b50505b505050565b600082821c905092915050565b6000620003ef60001984600802620003cf565b1980831691505092915050565b60006200040a8383620003dc565b9150826002028217905092915050565b6200042582620001a0565b67ffffffffffffffff811115620004415762000440620001ab565b5b6200044d825462000209565b6200045a8282856200037f565b600060209050601f8311600181146200049257600084156200047d578287015190505b620004898582620003fc565b865550620004f9565b601f198416620004a2866200023e565b60005b82811015620004cc57848901518255600182019150602085019450602081019050620004a5565b86831015620004ec5784890151620004e8601f891682620003dc565b8355505b6001600288020188555050505b505050505050565b613c3080620005116000396000f3fe608060405234801561001057600080fd5b50600436106101425760003560e01c8063663b3e22116100b8578063a22cb4651161007c578063a22cb465146103a0578063b88d4fde146103bc578063c87b56dd146103d8578063de8c98fd14610408578063e985e9c514610438578063f2fde38b1461046857610142565b8063663b3e22146102f557806370a082311461032a578063715018a61461035a5780638da5cb5b1461036457806395d89b411461038257610142565b80631692a9421161010a5780631692a942146101fd57806323b872dd1461022d5780632da386c31461024957806342842e0e1461027957806351640fee146102955780636352211e146102c557610142565b806301ffc9a71461014757806306f5497e1461017757806306fdde0314610193578063081812fc146101b1578063095ea7b3146101e1575b600080fd5b610161600480360381019061015c9190612414565b610484565b60405161016e919061245c565b60405180910390f35b610191600480360381019061018c91906124ad565b610566565b005b61019b610625565b6040516101a8919061256a565b60405180910390f35b6101cb60048036038101906101c691906124ad565b6106b7565b6040516101d891906125cd565b60405180910390f35b6101fb60048036038101906101f69190612614565b6106fd565b005b610217600480360381019061021291906124ad565b610814565b604051610224919061245c565b60405180910390f35b61024760048036038101906102429190612654565b610852565b005b610263600480360381019061025e91906127dc565b6108b2565b604051610270919061245c565b60405180910390f35b610293600480360381019061028e9190612654565b6108e8565b005b6102af60048036038101906102aa91906124ad565b610908565b6040516102bc9190612923565b60405180910390f35b6102df60048036038101906102da91906124ad565b610c72565b6040516102ec91906125cd565b60405180910390f35b61030f600480360381019061030a91906124ad565b610cf8565b60405161032196959493929190612945565b60405180910390f35b610344600480360381019061033f91906129c9565b610fe9565b6040516103519190612a05565b60405180910390f35b6103626110a0565b005b61036c6110b4565b60405161037991906125cd565b60405180910390f35b61038a6110de565b604051610397919061256a565b60405180910390f35b6103ba60048036038101906103b59190612a4c565b611170565b005b6103d660048036038101906103d19190612b2d565b611186565b005b6103f260048036038101906103ed91906124ad565b6111e8565b6040516103ff919061256a565b60405180910390f35b610422600480360381019061041d9190612bb0565b61126e565b60405161042f9190612a05565b60405180910390f35b610452600480360381019061044d9190612cc9565b61157b565b60405161045f919061245c565b60405180910390f35b610482600480360381019061047d91906129c9565b61160f565b005b60007f80ac58cd000000000000000000000000000000000000000000000000000000007bffffffffffffffffffffffffffffffffffffffffffffffffffffffff1916827bffffffffffffffffffffffffffffffffffffffffffffffffffffffff1916148061054f57507f5b5e139f000000000000000000000000000000000000000000000000000000007bffffffffffffffffffffffffffffffffffffffffffffffffffffffff1916827bffffffffffffffffffffffffffffffffffffffffffffffffffffffff1916145b8061055f575061055e82611692565b5b9050919050565b61056e6116fc565b61057661177a565b61057f816117c9565b6105be576040517f08c379a00000000000000000000000000000000000000000000000000000000081526004016105b590612d55565b60405180910390fd5b60006009600083815260200190815260200160002060050160006101000a81548160ff021916908315150217905550807fefa6c5f47ac2523bb4db18032377bf7fdce0fa9d86eddcae1ca9bba38be615d760405160405180910390a261062261180a565b50565b60606000805461063490612da4565b80601f016020809104026020016040519081016040528092919081815260200182805461066090612da4565b80156106ad5780601f10610682576101008083540402835291602001916106ad565b820191906000526020600020905b81548152906001019060200180831161069057829003601f168201915b5050505050905090565b60006106c282611814565b6004600083815260200190815260200160002060009054906101000a900473ffffffffffffffffffffffffffffffffffffffff169050919050565b600061070882610c72565b90508073ffffffffffffffffffffffffffffffffffffffff168373ffffffffffffffffffffffffffffffffffffffff1603610778576040517f08c379a000000000000000000000000000000000000000000000000000000000815260040161076f90612e47565b60405180910390fd5b8073ffffffffffffffffffffffffffffffffffffffff1661079761185f565b73ffffffffffffffffffffffffffffffffffffffff1614806107c657506107c5816107c061185f565b61157b565b5b610805576040517f08c379a00000000000000000000000000000000000000000000000000000000081526004016107fc90612ed9565b60405180910390fd5b61080f8383611867565b505050565b600061081f826117c9565b801561084b57506009600083815260200190815260200160002060050160009054906101000a900460ff165b9050919050565b61086361085d61185f565b82611920565b6108a2576040517f08c379a000000000000000000000000000000000000000000000000000000000815260040161089990612f6b565b60405180910390fd5b6108ad8383836119b5565b505050565b600a818051602081018201805184825260208301602085012081835280955050505050506000915054906101000a900460ff1681565b61090383838360405180602001604052806000815250611186565b505050565b610910612370565b610919826117c9565b610958576040517f08c379a000000000000000000000000000000000000000000000000000000000815260040161094f90612d55565b60405180910390fd5b600960008381526020019081526020016000206040518060c001604052908160008201805461098690612da4565b80601f01602080910402602001604051908101604052809291908181526020018280546109b290612da4565b80156109ff5780601f106109d4576101008083540402835291602001916109ff565b820191906000526020600020905b8154815290600101906020018083116109e257829003601f168201915b50505050508152602001600182018054610a1890612da4565b80601f0160208091040260200160405190810160405280929190818152602001828054610a4490612da4565b8015610a915780601f10610a6657610100808354040283529160200191610a91565b820191906000526020600020905b815481529060010190602001808311610a7457829003601f168201915b50505050508152602001600282018054610aaa90612da4565b80601f0160208091040260200160405190810160405280929190818152602001828054610ad690612da4565b8015610b235780601f10610af857610100808354040283529160200191610b23565b820191906000526020600020905b815481529060010190602001808311610b0657829003601f168201915b50505050508152602001600382018054610b3c90612da4565b80601f0160208091040260200160405190810160405280929190818152602001828054610b6890612da4565b8015610bb55780601f10610b8a57610100808354040283529160200191610bb5565b820191906000526020600020905b815481529060010190602001808311610b9857829003601f168201915b50505050508152602001600482018054610bce90612da4565b80601f0160208091040260200160405190810160405280929190818152602001828054610bfa90612da4565b8015610c475780601f10610c1c57610100808354040283529160200191610c47565b820191906000526020600020905b815481529060010190602001808311610c2a57829003601f168201915b505050505081526020016005820160009054906101000a900460ff1615151515815250509050919050565b600080610c7e83611cae565b9050600073ffffffffffffffffffffffffffffffffffffffff168173ffffffffffffffffffffffffffffffffffffffff1603610cef576040517f08c379a0000000000000000000000000000000000000000000000000000000008152600401610ce690612fd7565b60405180910390fd5b80915050919050565b6009602052806000526040600020600091509050806000018054610d1b90612da4565b80601f0160208091040260200160405190810160405280929190818152602001828054610d4790612da4565b8015610d945780601f10610d6957610100808354040283529160200191610d94565b820191906000526020600020905b815481529060010190602001808311610d7757829003601f168201915b505050505090806001018054610da990612da4565b80601f0160208091040260200160405190810160405280929190818152602001828054610dd590612da4565b8015610e225780601f10610df757610100808354040283529160200191610e22565b820191906000526020600020905b815481529060010190602001808311610e0557829003601f168201915b505050505090806002018054610e3790612da4565b80601f0160208091040260200160405190810160405280929190818152602001828054610e6390612da4565b8015610eb05780601f10610e8557610100808354040283529160200191610eb0565b820191906000526020600020905b815481529060010190602001808311610e9357829003601f168201915b505050505090806003018054610ec590612da4565b80601f0160208091040260200160405190810160405280929190818152602001828054610ef190612da4565b8015610f3e5780601f10610f1357610100808354040283529160200191610f3e565b820191906000526020600020905b815481529060010190602001808311610f2157829003601f168201915b505050505090806004018054610f5390612da4565b80601f0160208091040260200160405190810160405280929190818152602001828054610f7f90612da4565b8015610fcc5780601f10610fa157610100808354040283529160200191610fcc565b820191906000526020600020905b815481529060010190602001808311610faf57829003601f168201915b5050505050908060050160009054906101000a900460ff16905086565b60008073ffffffffffffffffffffffffffffffffffffffff168273ffffffffffffffffffffffffffffffffffffffff1603611059576040517f08c379a000000000000000000000000000000000000000000000000000000000815260040161105090613069565b60405180910390fd5b600360008373ffffffffffffffffffffffffffffffffffffffff1673ffffffffffffffffffffffffffffffffffffffff168152602001908152602001600020549050919050565b6110a86116fc565b6110b26000611ceb565b565b6000600660009054906101000a900473ffffffffffffffffffffffffffffffffffffffff16905090565b6060600180546110ed90612da4565b80601f016020809104026020016040519081016040528092919081815260200182805461111990612da4565b80156111665780601f1061113b57610100808354040283529160200191611166565b820191906000526020600020905b81548152906001019060200180831161114957829003601f168201915b5050505050905090565b61118261117b61185f565b8383611db1565b5050565b61119761119161185f565b83611920565b6111d6576040517f08c379a00000000000000000000000000000000000000000000000000000000081526004016111cd90612f6b565b60405180910390fd5b6111e284848484611f1d565b50505050565b60606111f3826117c9565b611232576040517f08c379a000000000000000000000000000000000000000000000000000000000815260040161122990612d55565b60405180910390fd5b600960008381526020019081526020016000206004016040516020016112589190613178565b6040516020818303038152906040529050919050565b60006112786116fc565b61128061177a565b600a8260405161129091906131cb565b908152602001604051809103902060009054906101000a900460ff16156112ec576040517f08c379a00000000000000000000000000000000000000000000000000000000081526004016112e39061322e565b60405180910390fd5b6000865111611330576040517f08c379a00000000000000000000000000000000000000000000000000000000081526004016113279061329a565b60405180910390fd5b6000855111611374576040517f08c379a000000000000000000000000000000000000000000000000000000000815260040161136b90613306565b60405180910390fd5b60008451116113b8576040517f08c379a00000000000000000000000000000000000000000000000000000000081526004016113af90613372565b60405180910390fd5b600a8351146113fc576040517f08c379a00000000000000000000000000000000000000000000000000000000081526004016113f3906133de565b60405180910390fd5b6114066008611f79565b60006114126008611f8f565b905061141e8882611f9d565b6040518060c00160405280888152602001878152602001868152602001858152602001848152602001600115158152506009600083815260200190815260200160002060008201518160000190816114769190613595565b50602082015181600101908161148c9190613595565b5060408201518160020190816114a29190613595565b5060608201518160030190816114b89190613595565b5060808201518160040190816114ce9190613595565b5060a08201518160050160006101000a81548160ff0219169083151502179055509050506001600a8460405161150491906131cb565b908152602001604051809103902060006101000a81548160ff021916908315150217905550807f95ad50d6596337460bdce4b8db70313463e0615be9266b573e781327aef44e0988888860405161155d93929190613667565b60405180910390a28091505061157161180a565b9695505050505050565b6000600560008473ffffffffffffffffffffffffffffffffffffffff1673ffffffffffffffffffffffffffffffffffffffff16815260200190815260200160002060008373ffffffffffffffffffffffffffffffffffffffff1673ffffffffffffffffffffffffffffffffffffffff16815260200190815260200160002060009054906101000a900460ff16905092915050565b6116176116fc565b600073ffffffffffffffffffffffffffffffffffffffff168173ffffffffffffffffffffffffffffffffffffffff1603611686576040517f08c379a000000000000000000000000000000000000000000000000000000000815260040161167d90613725565b60405180910390fd5b61168f81611ceb565b50565b60007f01ffc9a7000000000000000000000000000000000000000000000000000000007bffffffffffffffffffffffffffffffffffffffffffffffffffffffff1916827bffffffffffffffffffffffffffffffffffffffffffffffffffffffff1916149050919050565b61170461185f565b73ffffffffffffffffffffffffffffffffffffffff166117226110b4565b73ffffffffffffffffffffffffffffffffffffffff1614611778576040517f08c379a000000000000000000000000000000000000000000000000000000000815260040161176f90613791565b60405180910390fd5b565b6002600754036117bf576040517f08c379a00000000000000000000000000000000000000000000000000000000081526004016117b6906137fd565b60405180910390fd5b6002600781905550565b60008073ffffffffffffffffffffffffffffffffffffffff166117eb83611cae565b73ffffffffffffffffffffffffffffffffffffffff1614159050919050565b6001600781905550565b61181d816117c9565b61185c576040517f08c379a000000000000000000000000000000000000000000000000000000000815260040161185390612fd7565b60405180910390fd5b50565b600033905090565b816004600083815260200190815260200160002060006101000a81548173ffffffffffffffffffffffffffffffffffffffff021916908373ffffffffffffffffffffffffffffffffffffffff160217905550808273ffffffffffffffffffffffffffffffffffffffff166118da83610c72565b73ffffffffffffffffffffffffffffffffffffffff167f8c5be1e5ebec7d5bd14f71427d1e84f3dd0314c0f7b2291e5b200ac8c7c3b92560405160405180910390a45050565b60008061192c83610c72565b90508073ffffffffffffffffffffffffffffffffffffffff168473ffffffffffffffffffffffffffffffffffffffff16148061196e575061196d818561157b565b5b806119ac57508373ffffffffffffffffffffffffffffffffffffffff16611994846106b7565b73ffffffffffffffffffffffffffffffffffffffff16145b91505092915050565b8273ffffffffffffffffffffffffffffffffffffffff166119d582610c72565b73ffffffffffffffffffffffffffffffffffffffff1614611a2b576040517f08c379a0000000000000000000000000000000000000000000000000000000008152600401611a229061388f565b60405180910390fd5b600073ffffffffffffffffffffffffffffffffffffffff168273ffffffffffffffffffffffffffffffffffffffff1603611a9a576040517f08c379a0000000000000000000000000000000000000000000000000000000008152600401611a9190613921565b60405180910390fd5b611aa783838360016121ba565b8273ffffffffffffffffffffffffffffffffffffffff16611ac782610c72565b73ffffffffffffffffffffffffffffffffffffffff1614611b1d576040517f08c379a0000000000000000000000000000000000000000000000000000000008152600401611b149061388f565b60405180910390fd5b6004600082815260200190815260200160002060006101000a81549073ffffffffffffffffffffffffffffffffffffffff02191690556001600360008573ffffffffffffffffffffffffffffffffffffffff1673ffffffffffffffffffffffffffffffffffffffff168152602001908152602001600020600082825403925050819055506001600360008473ffffffffffffffffffffffffffffffffffffffff1673ffffffffffffffffffffffffffffffffffffffff16815260200190815260200160002060008282540192505081905550816002600083815260200190815260200160002060006101000a81548173ffffffffffffffffffffffffffffffffffffffff021916908373ffffffffffffffffffffffffffffffffffffffff160217905550808273ffffffffffffffffffffffffffffffffffffffff168473ffffffffffffffffffffffffffffffffffffffff167fddf252ad1be2c89b69c2b068fc378daa952ba7f163c4a11628f55a4df523b3ef60405160405180910390a4611ca983838360016121c0565b505050565b60006002600083815260200190815260200160002060009054906101000a900473ffffffffffffffffffffffffffffffffffffffff169050919050565b6000600660009054906101000a900473ffffffffffffffffffffffffffffffffffffffff16905081600660006101000a81548173ffffffffffffffffffffffffffffffffffffffff021916908373ffffffffffffffffffffffffffffffffffffffff1602179055508173ffffffffffffffffffffffffffffffffffffffff168173ffffffffffffffffffffffffffffffffffffffff167f8be0079c531659141344cd1fd0a4f28419497f9722a3daafe3b4186f6b6457e060405160405180910390a35050565b8173ffffffffffffffffffffffffffffffffffffffff168373ffffffffffffffffffffffffffffffffffffffff1603611e1f576040517f08c379a0000000000000000000000000000000000000000000000000000000008152600401611e169061398d565b60405180910390fd5b80600560008573ffffffffffffffffffffffffffffffffffffffff1673ffffffffffffffffffffffffffffffffffffffff16815260200190815260200160002060008473ffffffffffffffffffffffffffffffffffffffff1673ffffffffffffffffffffffffffffffffffffffff16815260200190815260200160002060006101000a81548160ff0219169083151502179055508173ffffffffffffffffffffffffffffffffffffffff168373ffffffffffffffffffffffffffffffffffffffff167f17307eab39ab6107e8899845ad3d59bd9653f200f220920489ca2b5937696c3183604051611f10919061245c565b60405180910390a3505050565b611f288484846119b5565b611f34848484846121c6565b611f73576040517f08c379a0000000000000000000000000000000000000000000000000000000008152600401611f6a90613a1f565b60405180910390fd5b50505050565b6001816000016000828254019250508190555050565b600081600001549050919050565b600073ffffffffffffffffffffffffffffffffffffffff168273ffffffffffffffffffffffffffffffffffffffff160361200c576040517f08c379a000000000000000000000000000000000000000000000000000000000815260040161200390613a8b565b60405180910390fd5b612015816117c9565b15612055576040517f08c379a000000000000000000000000000000000000000000000000000000000815260040161204c90613af7565b60405180910390fd5b6120636000838360016121ba565b61206c816117c9565b156120ac576040517f08c379a00000000000000000000000000000000000000000000000000000000081526004016120a390613af7565b60405180910390fd5b6001600360008473ffffffffffffffffffffffffffffffffffffffff1673ffffffffffffffffffffffffffffffffffffffff16815260200190815260200160002060008282540192505081905550816002600083815260200190815260200160002060006101000a81548173ffffffffffffffffffffffffffffffffffffffff021916908373ffffffffffffffffffffffffffffffffffffffff160217905550808273ffffffffffffffffffffffffffffffffffffffff16600073ffffffffffffffffffffffffffffffffffffffff167fddf252ad1be2c89b69c2b068fc378daa952ba7f163c4a11628f55a4df523b3ef60405160405180910390a46121b66000838360016121c0565b5050565b50505050565b50505050565b60006121e78473ffffffffffffffffffffffffffffffffffffffff1661234d565b15612340578373ffffffffffffffffffffffffffffffffffffffff1663150b7a0261221061185f565b8786866040518563ffffffff1660e01b81526004016122329493929190613b6c565b6020604051808303816000875af192505050801561226e57506040513d601f19601f8201168201806040525081019061226b9190613bcd565b60015b6122f0573d806000811461229e576040519150601f19603f3d011682016040523d82523d6000602084013e6122a3565b606091505b5060008151036122e8576040517f08c379a00000000000000000000000000000000000000000000000000000000081526004016122df90613a1f565b60405180910390fd5b805181602001fd5b63150b7a0260e01b7bffffffffffffffffffffffffffffffffffffffffffffffffffffffff1916817bffffffffffffffffffffffffffffffffffffffffffffffffffffffff191614915050612345565b600190505b949350505050565b6000808273ffffffffffffffffffffffffffffffffffffffff163b119050919050565b6040518060c0016040528060608152602001606081526020016060815260200160608152602001606081526020016000151581525090565b6000604051905090565b600080fd5b600080fd5b60007fffffffff0000000000000000000000000000000000000000000000000000000082169050919050565b6123f1816123bc565b81146123fc57600080fd5b50565b60008135905061240e816123e8565b92915050565b60006020828403121561242a576124296123b2565b5b6000612438848285016123ff565b91505092915050565b60008115159050919050565b61245681612441565b82525050565b6000602082019050612471600083018461244d565b92915050565b6000819050919050565b61248a81612477565b811461249557600080fd5b50565b6000813590506124a781612481565b92915050565b6000602082840312156124c3576124c26123b2565b5b60006124d184828501612498565b91505092915050565b600081519050919050565b600082825260208201905092915050565b60005b838110156125145780820151818401526020810190506124f9565b60008484015250505050565b6000601f19601f8301169050919050565b600061253c826124da565b61254681856124e5565b93506125568185602086016124f6565b61255f81612520565b840191505092915050565b600060208201905081810360008301526125848184612531565b905092915050565b600073ffffffffffffffffffffffffffffffffffffffff82169050919050565b60006125b78261258c565b9050919050565b6125c7816125ac565b82525050565b60006020820190506125e260008301846125be565b92915050565b6125f1816125ac565b81146125fc57600080fd5b50565b60008135905061260e816125e8565b92915050565b6000806040838503121561262b5761262a6123b2565b5b6000612639858286016125ff565b925050602061264a85828601612498565b9150509250929050565b60008060006060848603121561266d5761266c6123b2565b5b600061267b868287016125ff565b935050602061268c868287016125ff565b925050604061269d86828701612498565b9150509250925092565b600080fd5b600080fd5b7f4e487b7100000000000000000000000000000000000000000000000000000000600052604160045260246000fd5b6126e982612520565b810181811067ffffffffffffffff82111715612708576127076126b1565b5b80604052505050565b600061271b6123a8565b905061272782826126e0565b919050565b600067ffffffffffffffff821115612747576127466126b1565b5b61275082612520565b9050602081019050919050565b82818337600083830152505050565b600061277f61277a8461272c565b612711565b90508281526020810184848401111561279b5761279a6126ac565b5b6127a684828561275d565b509392505050565b600082601f8301126127c3576127c26126a7565b5b81356127d384826020860161276c565b91505092915050565b6000602082840312156127f2576127f16123b2565b5b600082013567ffffffffffffffff8111156128105761280f6123b7565b5b61281c848285016127ae565b91505092915050565b600082825260208201905092915050565b6000612841826124da565b61284b8185612825565b935061285b8185602086016124f6565b61286481612520565b840191505092915050565b61287881612441565b82525050565b600060c083016000830151848203600086015261289b8282612836565b915050602083015184820360208601526128b58282612836565b915050604083015184820360408601526128cf8282612836565b915050606083015184820360608601526128e98282612836565b915050608083015184820360808601526129038282612836565b91505060a083015161291860a086018261286f565b508091505092915050565b6000602082019050818103600083015261293d818461287e565b905092915050565b600060c082019050818103600083015261295f8189612531565b905081810360208301526129738188612531565b905081810360408301526129878187612531565b9050818103606083015261299b8186612531565b905081810360808301526129af8185612531565b90506129be60a083018461244d565b979650505050505050565b6000602082840312156129df576129de6123b2565b5b60006129ed848285016125ff565b91505092915050565b6129ff81612477565b82525050565b6000602082019050612a1a60008301846129f6565b92915050565b612a2981612441565b8114612a3457600080fd5b50565b600081359050612a4681612a20565b92915050565b60008060408385031215612a6357612a626123b2565b5b6000612a71858286016125ff565b9250506020612a8285828601612a37565b9150509250929050565b600067ffffffffffffffff821115612aa757612aa66126b1565b5b612ab082612520565b9050602081019050919050565b6000612ad0612acb84612a8c565b612711565b905082815260208101848484011115612aec57612aeb6126ac565b5b612af784828561275d565b509392505050565b600082601f830112612b1457612b136126a7565b5b8135612b24848260208601612abd565b91505092915050565b60008060008060808587031215612b4757612b466123b2565b5b6000612b55878288016125ff565b9450506020612b66878288016125ff565b9350506040612b7787828801612498565b925050606085013567ffffffffffffffff811115612b9857612b976123b7565b5b612ba487828801612aff565b91505092959194509250565b60008060008060008060c08789031215612bcd57612bcc6123b2565b5b6000612bdb89828a016125ff565b965050602087013567ffffffffffffffff811115612bfc57612bfb6123b7565b5b612c0889828a016127ae565b955050604087013567ffffffffffffffff811115612c2957612c286123b7565b5b612c3589828a016127ae565b945050606087013567ffffffffffffffff811115612c5657612c556123b7565b5b612c6289828a016127ae565b935050608087013567ffffffffffffffff811115612c8357612c826123b7565b5b612c8f89828a016127ae565b92505060a087013567ffffffffffffffff811115612cb057612caf6123b7565b5b612cbc89828a016127ae565b9150509295509295509295565b60008060408385031215612ce057612cdf6123b2565b5b6000612cee858286016125ff565b9250506020612cff858286016125ff565b9150509250929050565b7f436572746966696361746520646f6573206e6f74206578697374000000000000600082015250565b6000612d3f601a836124e5565b9150612d4a82612d09565b602082019050919050565b60006020820190508181036000830152612d6e81612d32565b9050919050565b7f4e487b7100000000000000000000000000000000000000000000000000000000600052602260045260246000fd5b60006002820490506001821680612dbc57607f821691505b602082108103612dcf57612dce612d75565b5b50919050565b7f4552433732313a20617070726f76616c20746f2063757272656e74206f776e6560008201527f7200000000000000000000000000000000000000000000000000000000000000602082015250565b6000612e316021836124e5565b9150612e3c82612dd5565b604082019050919050565b60006020820190508181036000830152612e6081612e24565b9050919050565b7f4552433732313a20617070726f76652063616c6c6572206973206e6f7420746f60008201527f6b656e206f776e6572206f7220617070726f76656420666f7220616c6c000000602082015250565b6000612ec3603d836124e5565b9150612ece82612e67565b604082019050919050565b60006020820190508181036000830152612ef281612eb6565b9050919050565b7f4552433732313a2063616c6c6572206973206e6f7420746f6b656e206f776e6560008201527f72206f7220617070726f76656400000000000000000000000000000000000000602082015250565b6000612f55602d836124e5565b9150612f6082612ef9565b604082019050919050565b60006020820190508181036000830152612f8481612f48565b9050919050565b7f4552433732313a20696e76616c696420746f6b656e2049440000000000000000600082015250565b6000612fc16018836124e5565b9150612fcc82612f8b565b602082019050919050565b60006020820190508181036000830152612ff081612fb4565b9050919050565b7f4552433732313a2061646472657373207a65726f206973206e6f74206120766160008201527f6c6964206f776e65720000000000000000000000000000000000000000000000602082015250565b60006130536029836124e5565b915061305e82612ff7565b604082019050919050565b6000602082019050818103600083015261308281613046565b9050919050565b600081905092915050565b7f697066733a2f2f00000000000000000000000000000000000000000000000000600082015250565b60006130ca600783613089565b91506130d582613094565b600782019050919050565b60008190508160005260206000209050919050565b6000815461310281612da4565b61310c8186613089565b94506001821660008114613127576001811461313c5761316f565b60ff198316865281151582028601935061316f565b613145856130e0565b60005b8381101561316757815481890152600182019150602081019050613148565b838801955050505b50505092915050565b6000613183826130bd565b915061318f82846130f5565b915081905092915050565b60006131a5826124da565b6131af8185613089565b93506131bf8185602086016124f6565b80840191505092915050565b60006131d7828461319a565b915081905092915050565b7f49504653206861736820616c7265616479207573656400000000000000000000600082015250565b60006132186016836124e5565b9150613223826131e2565b602082019050919050565b600060208201905081810360008301526132478161320b565b9050919050565b7f53747564656e74206e616d652063616e6e6f7420626520656d70747900000000600082015250565b6000613284601c836124e5565b915061328f8261324e565b602082019050919050565b600060208201905081810360008301526132b381613277565b9050919050565b7f4465677265652063616e6e6f7420626520656d70747900000000000000000000600082015250565b60006132f06016836124e5565b91506132fb826132ba565b602082019050919050565b6000602082019050818103600083015261331f816132e3565b9050919050565b7f496e737469747574696f6e2063616e6e6f7420626520656d7074790000000000600082015250565b600061335c601b836124e5565b915061336782613326565b602082019050919050565b6000602082019050818103600083015261338b8161334f565b9050919050565b7f55736520595959592d4d4d2d444420666f726d61740000000000000000000000600082015250565b60006133c86015836124e5565b91506133d382613392565b602082019050919050565b600060208201905081810360008301526133f7816133bb565b9050919050565b60006020601f8301049050919050565b600082821b905092915050565b60006008830261344b7fffffffffffffffffffffffffffffffffffffffffffffffffffffffffffffffff8261340e565b613455868361340e565b95508019841693508086168417925050509392505050565b6000819050919050565b600061349261348d61348884612477565b61346d565b612477565b9050919050565b6000819050919050565b6134ac83613477565b6134c06134b882613499565b84845461341b565b825550505050565b600090565b6134d56134c8565b6134e08184846134a3565b505050565b5b81811015613504576134f96000826134cd565b6001810190506134e6565b5050565b601f8211156135495761351a816130e0565b613523846133fe565b81016020851015613532578190505b61354661353e856133fe565b8301826134e5565b50505b505050565b600082821c905092915050565b600061356c6000198460080261354e565b1980831691505092915050565b6000613585838361355b565b9150826002028217905092915050565b61359e826124da565b67ffffffffffffffff8111156135b7576135b66126b1565b5b6135c18254612da4565b6135cc828285613508565b600060209050601f8311600181146135ff57600084156135ed578287015190505b6135f78582613579565b86555061365f565b601f19841661360d866130e0565b60005b8281101561363557848901518255600182019150602085019450602081019050613610565b86831015613652578489015161364e601f89168261355b565b8355505b6001600288020188555050505b505050505050565b600060608201905081810360008301526136818186612531565b905081810360208301526136958185612531565b905081810360408301526136a98184612531565b9050949350505050565b7f4f776e61626c653a206e6577206f776e657220697320746865207a65726f206160008201527f6464726573730000000000000000000000000000000000000000000000000000602082015250565b600061370f6026836124e5565b915061371a826136b3565b604082019050919050565b6000602082019050818103600083015261373e81613702565b9050919050565b7f4f776e61626c653a2063616c6c6572206973206e6f7420746865206f776e6572600082015250565b600061377b6020836124e5565b915061378682613745565b602082019050919050565b600060208201905081810360008301526137aa8161376e565b9050919050565b7f5265656e7472616e637947756172643a207265656e7472616e742063616c6c00600082015250565b60006137e7601f836124e5565b91506137f2826137b1565b602082019050919050565b60006020820190508181036000830152613816816137da565b9050919050565b7f4552433732313a207472616e736665722066726f6d20696e636f72726563742060008201527f6f776e6572000000000000000000000000000000000000000000000000000000602082015250565b60006138796025836124e5565b91506138848261381d565b604082019050919050565b600060208201905081810360008301526138a88161386c565b9050919050565b7f4552433732313a207472616e7366657220746f20746865207a65726f2061646460008201527f7265737300000000000000000000000000000000000000000000000000000000602082015250565b600061390b6024836124e5565b9150613916826138af565b604082019050919050565b6000602082019050818103600083015261393a816138fe565b9050919050565b7f4552433732313a20617070726f766520746f2063616c6c657200000000000000600082015250565b60006139776019836124e5565b915061398282613941565b602082019050919050565b600060208201905081810360008301526139a68161396a565b9050919050565b7f4552433732313a207472616e7366657220746f206e6f6e20455243373231526560008201527f63656976657220696d706c656d656e7465720000000000000000000000000000602082015250565b6000613a096032836124e5565b9150613a14826139ad565b604082019050919050565b60006020820190508181036000830152613a38816139fc565b9050919050565b7f4552433732313a206d696e7420746f20746865207a65726f2061646472657373600082015250565b6000613a756020836124e5565b9150613a8082613a3f565b602082019050919050565b60006020820190508181036000830152613aa481613a68565b9050919050565b7f4552433732313a20746f6b656e20616c7265616479206d696e74656400000000600082015250565b6000613ae1601c836124e5565b9150613aec82613aab565b602082019050919050565b60006020820190508181036000830152613b1081613ad4565b9050919050565b600081519050919050565b600082825260208201905092915050565b6000613b3e82613b17565b613b488185613b22565b9350613b588185602086016124f6565b613b6181612520565b840191505092915050565b6000608082019050613b8160008301876125be565b613b8e60208301866125be565b613b9b60408301856129f6565b8181036060830152613bad8184613b33565b905095945050505050565b600081519050613bc7816123e8565b92915050565b600060208284031215613be357613be26123b2565b5b6000613bf184828501613bb8565b9150509291505056fea264697066735822122002d71a75f0c3cf7559fd391103205bb9be02142472b2136c096db1f62b14e5f964736f6c63430008130033",
  "linkReferences": {},
  "deployedLinkReferences": {}
}