{
  "_format": "hh-sol-artifact-1",
  "contractName": "CertificateNFT",
  "sourceName": "contracts/CertificateNFT.sol",
  "abi": [
    {
      "inputs": [],
      "stateMutability": "nonpayable",
      "type": "constructor"
    },
    {
      "anonymous": false,
      "inputs": [
        {
          "indexed": true,
          "internalType": "address",
          "name": "owner",
          "type": "address"
        },
        {
          "indexed": true,
          "internalType": "address",
          "name": "approved",
          "type": "address"
        },
        {
          "indexed": true,
          "internalType": "uint256",
          "name": "tokenId",
          "type": "uint256"
        }
      ],
      "name": "Approval",
      "type": "event"
    },
    {
      "anonymous": false,
      "inputs": [
        {
          "indexed": true,
          "internalType": "address",
          "name": "owner",
          "type": "address"
        },
        {
          "indexed": true,
          "internalType": "address",
          "name": "operator",
          "type": "address"
        },
        {
          "indexed": false,
          "internalType": "bool",
          "name": "approved",
          "type": "bool"
        }
      ],
      "name": "ApprovalForAll",
      "type": "event"
    },
    {
      "anonymous": false,
      "inputs": [
        {
          "indexed": true,
          "internalType": "uint256",
          "name": "tokenId",
          "type": "uint256"
        },
        {
          "indexed": false,
          "internalType": "string",
          "name": "studentName",
          "type": "string"
        },
        {
          "indexed": false,
          "internalType": "string",
          "name": "degree",
          "type": "string"
        },
        {
          "indexed": false,
          "internalType": "string",
          "name": "institution",
          "type": "string"
        }
      ],
      "name": "CertificateIssued",
      "type": "event"
    },
    {
      "anonymous": false,
      "inputs": [
        {
          "indexed": true,
          "internalType": "uint256",
          "name": "tokenId",
          "type": "uint256"
        }
      ],
      "name": "CertificateRevoked",
      "type": "event"
    },
    {
      "anonymous": false,
      "inputs": [
        {
          "indexed": false,
          "internalType": "uint256",
          "name": "batchSize",
          "type": "uint256"
        }
      ],
      "name": "CertificatesIssuedInBatch",
      "type": "event"
    },
    {
      "anonymous": false,
      "inputs": [
        {
          "indexed": true,
          "internalType": "address",
          "name": "previousOwner",
          "type": "address"
        },
        {
          "indexed": true,
          "internalType": "address",
          "name": "newOwner",
          "type": "address"
        }
      ],
      "name": "OwnershipTransferred",
      "type": "event"
    },
    {
      "anonymous": false,
      "inputs": [
        {
          "indexed": true,
          "internalType": "address",
          "name": "from",
          "type": "address"
        },
        {
          "indexed": true,
          "internalType": "address",
          "name": "to",
          "type": "address"
        },
        {
          "indexed": true,
          "internalType": "uint256",
          "name": "tokenId",
          "type": "uint256"
        }
      ],
      "name": "Transfer",
      "type": "event"
    },
    {
      "inputs": [
        {
          "internalType": "address",
          "name": "to",
          "type": "address"
        },
        {
          "internalType": "uint256",
          "name": "tokenId",
          "type": "uint256"
        }
      ],
      "name": "approve",
      "outputs": [],
      "stateMutability": "nonpayable",
      "type": "function"
    },
    {
      "inputs": [
        {
          "internalType": "address",
          "name": "owner",
          "type": "address"
        }
      ],
      "name": "balanceOf",
      "outputs": [
        {
          "internalType": "uint256",
          "name": "",
          "type": "uint256"
        }
      ],
      "stateMutability": "view",
      "type": "function"
    },
    {
      "inputs": [
        {
          "internalType": "uint256",
          "name": "",
          "type": "uint256"
        }
      ],
      "name": "certificates",
      "outputs": [
        {
          "internalType": "string",
          "name": "studentName",
          "type": "string"
        },
        {
          "internalType": "string",
          "name": "degree",
          "type": "string"
        },
        {
          "internalType": "string",
          "name": "institution",
          "type": "string"
        },
        {
          "internalType": "string",
          "name": "graduationDate",
          "type": "string"
        },
        {
          "internalType": "string",
          "name": "ipfsHash",
          "type": "string"
        },
        {
          "internalType": "bool",
          "name": "isValid",
          "type": "bool"
        }
      ],
      "stateMutability": "view",
      "type": "function"
    },
    {
      "inputs": [
        {
          "internalType": "uint256",
          "name": "tokenId",
          "type": "uint256"
        }
      ],
      "name": "getApproved",
      "outputs": [
        {
          "internalType": "address",
          "name": "",
          "type": "address"
        }
      ],
      "stateMutability": "view",
      "type": "function"
    },
    {
      "inputs": [
        {
          "internalType": "uint256",
          "name": "tokenId",
          "type": "uint256"
        }
      ],
      "name": "getCertificate",
      "outputs": [
        {
          "components": [
            {
              "internalType": "string",
              "name": "studentName",
              "type": "string"
            },
            {
              "internalType": "string",
              "name": "degree",
              "type": "string"
            },
            {
              "internalType": "string",
              "name": "institution",
              "type": "string"
            },
            {
              "internalType": "string",
              "name": "graduationDate",
              "type": "string"
            },
            {
              "internalType": "string",
              "name": "ipfsHash",
              "type": "string"
            },
            {
              "internalType": "bool",
              "name": "isValid",
              "type": "bool"
            }
          ],
          "internalType": "struct CertificateNFT.Certificate",
          "name": "",
          "type": "tuple"
        }
      ],
      "stateMutability": "view",
      "type": "function"
    },
    {
      "inputs": [
        {
          "internalType": "address",
          "name": "owner",
          "type": "address"
        },
        {
          "internalType": "address",
          "name": "operator",
          "type": "address"
        }
      ],
      "name": "isApprovedForAll",
      "outputs": [
        {
          "internalType": "bool",
          "name": "",
          "type": "bool"
        }
      ],
      "stateMutability": "view",
      "type": "function"
    },
    {
      "inputs": [
        {
          "internalType": "address",
          "name": "recipient",
          "type": "address"
        },
        {
          "internalType": "string",
          "name": "studentName",
          "type": "string"
        },
        {
          "internalType": "string",
          "name": "degree",
          "type": "string"
        },
        {
          "internalType": "string",
          "name": "institution",
          "type": "string"
        },
        {
          "internalType": "string",
          "name": "graduationDate",
          "type": "string"
        },
        {
          "internalType": "string",
          "name": "ipfsHash",
          "type": "string"
        }
      ],
      "name": "issueCertificate",
      "outputs": [
        {
          "internalType": "uint256",
          "name": "",
          "type": "uint256"
        }
      ],
      "stateMutability": "nonpayable",
      "type": "function"
    },
    {
      "inputs": [
        {
          "internalType": "address[]",
          "name": "recipients",
          "type": "address[]"
        },
        {
          "internalType": "string[]",
          "name": "studentNames",
          "type": "string[]"
        },
        {
          "internalType": "string[]",
          "name": "degrees",
          "type": "string[]"
        },
        {
          "internalType": "string[]",
          "name": "institutions",
          "type": "string[]"
        },
        {
          "internalType": "string[]",
          "name": "graduationDates",
          "type": "string[]"
        },
        {
          "internalType": "string[]",
          "name": "ipfsHashes",
          "type": "string[]"
        }
      ],
      "name": "issueCertificatesBatch",
      "outputs": [
        {
          "internalType": "uint256[]",
          "name": "",
          "type": "uint256[]"
        }
      ],
      "stateMutability": "nonpayable",
      "type": "function"
    },
    {
      "inputs": [],
      "name": "name",
      "outputs": [
        {
          "internalType": "string",
          "name": "",
          "type": "string"
        }
      ],
      "stateMutability": "view",
      "type": "function"
    },
    {
      "inputs": [],
      "name": "owner",
      "outputs": [
        {
          "internalType": "address",
          "name": "",
          "type": "address"
        }
      ],
      "stateMutability": "view",
      "type": "function"
    },
    {
      "inputs": [
        {
          "internalType": "uint256",
          "name": "tokenId",
          "type": "uint256"
        }
      ],
      "name": "ownerOf",
      "outputs": [
        {
          "internalType": "address",
          "name": "",
          "type": "address"
        }
      ],
      "stateMutability": "view",
      "type": "function"
    },
    {
      "inputs": [],
      "name": "renounceOwnership",
      "outputs": [],
      "stateMutability": "nonpayable",
      "type": "function"
    },
    {
      "inputs": [
        {
          "internalType": "uint256",
          "name": "tokenId",
          "type": "uint256"
        }
      ],
      "name": "revokeCertificate",
      "outputs": [],
      "stateMutability": "nonpayable",
      "type": "function"
    },
    {
      "inputs": [
        {
          "internalType": "address",
          "name": "from",
          "type": "address"
        },
        {
          "internalType": "address",
          "name": "to",
          "type": "address"
        },
        {
          "internalType": "uint256",
          "name": "tokenId",
          "type": "uint256"
        }
      ],
      "name": "safeTransferFrom",
      "outputs": [],
      "stateMutability": "nonpayable",
      "type": "function"
    },
    {
      "inputs": [
        {
          "internalType": "address",
          "name": "from",
          "type": "address"
        },
        {
          "internalType": "address",
          "name": "to",
          "type": "address"
        },
        {
          "internalType": "uint256",
          "name": "tokenId",
          "type": "uint256"
        },
        {
          "internalType": "bytes",
          "name": "data",
          "type": "bytes"
        }
      ],
      "name": "safeTransferFrom",
      "outputs": [],
      "stateMutability": "nonpayable",
      "type": "function"
    },
    {
      "inputs": [
        {
          "internalType": "address",
          "name": "operator",
          "type": "address"
        },
        {
          "internalType": "bool",
          "name": "approved",
          "type": "bool"
        }
      ],
      "name": "setApprovalForAll",
      "outputs": [],
      "stateMutability": "nonpayable",
      "type": "function"
    },
    {
      "inputs": [
        {
          "internalType": "bytes4",
          "name": "interfaceId",
          "type": "bytes4"
        }
      ],
      "name": "supportsInterface",
      "outputs": [
        {
          "internalType": "bool",
          "name": "",
          "type": "bool"
        }
      ],
      "stateMutability": "view",
      "type": "function"
    },
    {
      "inputs": [],
      "name": "symbol",
      "outputs": [
        {
          "internalType": "string",
          "name": "",
          "type": "string"
        }
      ],
      "stateMutability": "view",
      "type": "function"
    },
    {
      "inputs": [
        {
          "internalType": "uint256",
          "name": "tokenId",
          "type": "uint256"
        }
      ],
      "name": "tokenURI",
      "outputs": [
        {
          "internalType": "string",
          "name": "",
          "type": "string"
        }
      ],
      "stateMutability": "view",
      "type": "function"
    },
    {
      "inputs": [
        {
          "internalType": "address",
          "name": "from",
          "type": "address"
        },
        {
          "internalType": "address",
          "name": "to",
          "type": "address"
        },
        {
          "internalType": "uint256",
          "name": "tokenId",
          "type": "uint256"
        }
      ],
      "name": "transferFrom",
      "outputs": [],
      "stateMutability": "nonpayable",
      "type": "function"
    },
    {
      "inputs": [
        {
          "internalType": "address",
          "name": "newOwner",
          "type": "address"
        }
      ],
      "name": "transferOwnership",
      "outputs": [],
      "stateMutability": "nonpayable",
      "type": "function"
    },
    {
      "inputs": [
        {
          "internalType": "string",
          "name": "",
          "type": "string"
        }
      ],
      "name": "usedIpfsHashes",
      "outputs": [
        {
          "internalType": "bool",
          "name": "",
          "type": "bool"
        }
      ],
      "stateMutability": "view",
      "type": "function"
    },
    {
      "inputs": [
        {
          "internalType": "uint256",
          "name": "tokenId",
          "type": "uint256"
        }
      ],
      "name": "verifyCertificate",
      "outputs": [
        {
          "internalType": "bool",
          "name": "",
          "type": "bool"
        }
      ],
      "stateMutability": "view",
      "type": "function"
    }
  ],
  "bytecode": "0x60806040523480156200001157600080fd5b506040518060400160405280601681526020017f556e6976657273697479204365727469666963617465000000000000000000008152506040518060400160405280600581526020017f554345525400000000000000000000000000000000000000000000000000000081525081600090816200008f91906200041a565b508060019081620000a191906200041a565b505050620000c4620000b8620000d260201b60201c565b620000da60201b60201c565b600160078190555062000501565b600033905090565b6000600660009054906101000a900473ffffffffffffffffffffffffffffffffffffffff16905081600660006101000a81548173ffffffffffffffffffffffffffffffffffffffff021916908373ffffffffffffffffffffffffffffffffffffffff1602179055508173ffffffffffffffffffffffffffffffffffffffff168173ffffffffffffffffffffffffffffffffffffffff167f8be0079c531659141344cd1fd0a4f28419497f9722a3daafe3b4186f6b6457e060405160405180910390a35050565b600081519050919050565b7f4e487b7100000000000000000000000000000000000000000000000000000000600052604160045260246000fd5b7f4e487b7100000000000000000000000000000000000000000000000000000000600052602260045260246000fd5b600060028204905060018216806200022257607f821691505b602082108103620002385762000237620001da565b5b50919050565b60008190508160005260206000209050919050565b60006020601f8301049050919050565b600082821b905092915050565b600060088302620002a27fffffffffffffffffffffffffffffffffffffffffffffffffffffffffffffffff8262000263565b620002ae868362000263565b95508019841693508086168417925050509392505050565b6000819050919050565b6000819050919050565b6000620002fb620002f5620002ef84620002c6565b620002d0565b620002c6565b9050919050565b6000819050919050565b6200031783620002da565b6200032f620003268262000302565b84845462000270565b825550505050565b600090565b6200034662000337565b620003538184846200030c565b505050565b5b818110156200037b576200036f6000826200033c565b60018101905062000359565b5050565b601f821115620003ca5762000394816200023e565b6200039f8462000253565b81016020851015620003af578190505b620003c7620003be8562000253565b83018262000358565b50505b505050565b600082821c905092915050565b6000620003ef60001984600802620003cf565b1980831691505092915050565b60006200040a8383620003dc565b9150826002028217905092915050565b6200042582620001a0565b67ffffffffffffffff811115620004415762000440620001ab565b5b6200044d825462000209565b6200045a8282856200037f565b600060209050601f8311600181146200049257600084156200047d578287015190505b620004898582620003fc565b865550620004f9565b601f198416620004a2866200023e565b60005b82811015620004cc57848901518255600182019150602085019450602081019050620004a5565b86831015620004ec5784890151620004e8601f891682620003dc565b8355505b6001600288020188555050505b505050505050565b61470c80620005116000396000f3fe608060405234801561001057600080fd5b506004361061014d5760003560e01c8063663b3e22116100c3578063b88d4fde1161007c578063b88d4fde146103c7578063c87b56dd146103e3578063de8c98fd14610413578063e985e9c514610443578063f2fde38b14610473578063f857b1fe1461048f5761014d565b8063663b3e221461030057806370a0823114610335578063715018a6146103655780638da5cb5b1461036f57806395d89b411461038d578063a22cb465146103ab5761014d565b80631692a942116101155780631692a9421461020857806323b872dd146102385780632da386c31461025457806342842e0e1461028457806351640fee146102a05780636352211e146102d05761014d565b806301ffc9a71461015257806306f5497e1461018257806306fdde031461019e578063081812fc146101bc578063095ea7b3146101ec575b600080fd5b61016c60048036038101906101679190612a20565b6104bf565b6040516101799190612a68565b60405180910390f35b61019c60048036038101906101979190612ab9565b6105a1565b005b6101a6610660565b6040516101b39190612b76565b60405180910390f35b6101d660048036038101906101d19190612ab9565b6106f2565b6040516101e39190612bd9565b60405180910390f35b61020660048036038101906102019190612c20565b610738565b005b610222600480360381019061021d9190612ab9565b61084f565b60405161022f9190612a68565b60405180910390f35b610252600480360381019061024d9190612c60565b61088d565b005b61026e60048036038101906102699190612de8565b6108ed565b60405161027b9190612a68565b60405180910390f35b61029e60048036038101906102999190612c60565b610923565b005b6102ba60048036038101906102b59190612ab9565b610943565b6040516102c79190612f2f565b60405180910390f35b6102ea60048036038101906102e59190612ab9565b610cad565b6040516102f79190612bd9565b60405180910390f35b61031a60048036038101906103159190612ab9565b610d33565b60405161032c96959493929190612f51565b60405180910390f35b61034f600480360381019061034a9190612fd5565b611024565b60405161035c9190613011565b60405180910390f35b61036d6110db565b005b6103776110ef565b6040516103849190612bd9565b60405180910390f35b610395611119565b6040516103a29190612b76565b60405180910390f35b6103c560048036038101906103c09190613058565b6111ab565b005b6103e160048036038101906103dc9190613139565b6111c1565b005b6103fd60048036038101906103f89190612ab9565b611223565b60405161040a9190612b76565b60405180910390f35b61042d600480360381019061042891906131bc565b6112a9565b60405161043a9190613011565b60405180910390f35b61045d600480360381019061045891906132d5565b6115b6565b60405161046a9190612a68565b60405180910390f35b61048d60048036038101906104889190612fd5565b61164a565b005b6104a960048036038101906104a491906134be565b6116cd565b6040516104b691906136b1565b60405180910390f35b60007f80ac58cd000000000000000000000000000000000000000000000000000000007bffffffffffffffffffffffffffffffffffffffffffffffffffffffff1916827bffffffffffffffffffffffffffffffffffffffffffffffffffffffff1916148061058a57507f5b5e139f000000000000000000000000000000000000000000000000000000007bffffffffffffffffffffffffffffffffffffffffffffffffffffffff1916827bffffffffffffffffffffffffffffffffffffffffffffffffffffffff1916145b8061059a575061059982611c9e565b5b9050919050565b6105a9611d08565b6105b1611d86565b6105ba81611dd5565b6105f9576040517f08c379a00000000000000000000000000000000000000000000000000000000081526004016105f09061371f565b60405180910390fd5b60006009600083815260200190815260200160002060050160006101000a81548160ff021916908315150217905550807fefa6c5f47ac2523bb4db18032377bf7fdce0fa9d86eddcae1ca9bba38be615d760405160405180910390a261065d611e16565b50565b60606000805461066f9061376e565b80601f016020809104026020016040519081016040528092919081815260200182805461069b9061376e565b80156106e85780601f106106bd576101008083540402835291602001916106e8565b820191906000526020600020905b8154815290600101906020018083116106cb57829003601f168201915b5050505050905090565b60006106fd82611e20565b6004600083815260200190815260200160002060009054906101000a900473ffffffffffffffffffffffffffffffffffffffff169050919050565b600061074382610cad565b90508073ffffffffffffffffffffffffffffffffffffffff168373ffffffffffffffffffffffffffffffffffffffff16036107b3576040517f08c379a00000000000000000000000000000000000000000000000000000000081526004016107aa90613811565b60405180910390fd5b8073ffffffffffffffffffffffffffffffffffffffff166107d2611e6b565b73ffffffffffffffffffffffffffffffffffffffff1614806108015750610800816107fb611e6b565b6115b6565b5b610840576040517f08c379a0000000000000000000000000000000000000000000000000000000008152600401610837906138a3565b60405180910390fd5b61084a8383611e73565b505050565b600061085a82611dd5565b801561088657506009600083815260200190815260200160002060050160009054906101000a900460ff165b9050919050565b61089e610898611e6b565b82611f2c565b6108dd576040517f08c379a00000000000000000000000000000000000000000000000000000000081526004016108d490613935565b60405180910390fd5b6108e8838383611fc1565b505050565b600a818051602081018201805184825260208301602085012081835280955050505050506000915054906101000a900460ff1681565b61093e838383604051806020016040528060008152506111c1565b505050565b61094b61297c565b61095482611dd5565b610993576040517f08c379a000000000000000000000000000000000000000000000000000000000815260040161098a9061371f565b60405180910390fd5b600960008381526020019081526020016000206040518060c00160405290816000820180546109c19061376e565b80601f01602080910402602001604051908101604052809291908181526020018280546109ed9061376e565b8015610a3a5780601f10610a0f57610100808354040283529160200191610a3a565b820191906000526020600020905b815481529060010190602001808311610a1d57829003601f168201915b50505050508152602001600182018054610a539061376e565b80601f0160208091040260200160405190810160405280929190818152602001828054610a7f9061376e565b8015610acc5780601f10610aa157610100808354040283529160200191610acc565b820191906000526020600020905b815481529060010190602001808311610aaf57829003601f168201915b50505050508152602001600282018054610ae59061376e565b80601f0160208091040260200160405190810160405280929190818152602001828054610b119061376e565b8015610b5e5780601f10610b3357610100808354040283529160200191610b5e565b820191906000526020600020905b815481529060010190602001808311610b4157829003601f168201915b50505050508152602001600382018054610b779061376e565b80601f0160208091040260200160405190810160405280929190818152602001828054610ba39061376e565b8015610bf05780601f10610bc557610100808354040283529160200191610bf0565b820191906000526020600020905b815481529060010190602001808311610bd357829003601f168201915b50505050508152602001600482018054610c099061376e565b80601f0160208091040260200160405190810160405280929190818152602001828054610c359061376e565b8015610c825780601f10610c5757610100808354040283529160200191610c82565b820191906000526020600020905b815481529060010190602001808311610c6557829003601f168201915b505050505081526020016005820160009054906101000a900460ff1615151515815250509050919050565b600080610cb9836122ba565b9050600073ffffffffffffffffffffffffffffffffffffffff168173ffffffffffffffffffffffffffffffffffffffff1603610d2a576040517f08c379a0000000000000000000000000000000000000000000000000000000008152600401610d21906139a1565b60405180910390fd5b80915050919050565b6009602052806000526040600020600091509050806000018054610d569061376e565b80601f0160208091040260200160405190810160405280929190818152602001828054610d829061376e565b8015610dcf5780601f10610da457610100808354040283529160200191610dcf565b820191906000526020600020905b815481529060010190602001808311610db257829003601f168201915b505050505090806001018054610de49061376e565b80601f0160208091040260200160405190810160405280929190818152602001828054610e109061376e565b8015610e5d5780601f10610e3257610100808354040283529160200191610e5d565b820191906000526020600020905b815481529060010190602001808311610e4057829003601f168201915b505050505090806002018054610e729061376e565b80601f0160208091040260200160405190810160405280929190818152602001828054610e9e9061376e565b8015610eeb5780601f10610ec057610100808354040283529160200191610eeb565b820191906000526020600020905b815481529060010190602001808311610ece57829003601f168201915b505050505090806003018054610f009061376e565b80601f0160208091040260200160405190810160405280929190818152602001828054610f2c9061376e565b8015610f795780601f10610f4e57610100808354040283529160200191610f79565b820191906000526020600020905b815481529060010190602001808311610f5c57829003601f168201915b505050505090806004018054610f8e9061376e565b80601f0160208091040260200160405190810160405280929190818152602001828054610fba9061376e565b80156110075780601f10610fdc57610100808354040283529160200191611007565b820191906000526020600020905b815481529060010190602001808311610fea57829003601f168201915b5050505050908060050160009054906101000a900460ff16905086565b60008073ffffffffffffffffffffffffffffffffffffffff168273ffffffffffffffffffffffffffffffffffffffff1603611094576040517f08c379a000000000000000000000000000000000000000000000000000000000815260040161108b90613a33565b60405180910390fd5b600360008373ffffffffffffffffffffffffffffffffffffffff1673ffffffffffffffffffffffffffffffffffffffff168152602001908152602001600020549050919050565b6110e3611d08565b6110ed60006122f7565b565b6000600660009054906101000a900473ffffffffffffffffffffffffffffffffffffffff16905090565b6060600180546111289061376e565b80601f01602080910402602001604051908101604052809291908181526020018280546111549061376e565b80156111a15780601f10611176576101008083540402835291602001916111a1565b820191906000526020600020905b81548152906001019060200180831161118457829003601f168201915b5050505050905090565b6111bd6111b6611e6b565b83836123bd565b5050565b6111d26111cc611e6b565b83611f2c565b611211576040517f08c379a000000000000000000000000000000000000000000000000000000000815260040161120890613935565b60405180910390fd5b61121d84848484612529565b50505050565b606061122e82611dd5565b61126d576040517f08c379a00000000000000000000000000000000000000000000000000000000081526004016112649061371f565b60405180910390fd5b600960008381526020019081526020016000206004016040516020016112939190613b42565b6040516020818303038152906040529050919050565b60006112b3611d08565b6112bb611d86565b600a826040516112cb9190613b95565b908152602001604051809103902060009054906101000a900460ff1615611327576040517f08c379a000000000000000000000000000000000000000000000000000000000815260040161131e90613bf8565b60405180910390fd5b600086511161136b576040517f08c379a000000000000000000000000000000000000000000000000000000000815260040161136290613c64565b60405180910390fd5b60008551116113af576040517f08c379a00000000000000000000000000000000000000000000000000000000081526004016113a690613cd0565b60405180910390fd5b60008451116113f3576040517f08c379a00000000000000000000000000000000000000000000000000000000081526004016113ea90613d3c565b60405180910390fd5b600a835114611437576040517f08c379a000000000000000000000000000000000000000000000000000000000815260040161142e90613da8565b60405180910390fd5b6114416008612585565b600061144d600861259b565b905061145988826125a9565b6040518060c00160405280888152602001878152602001868152602001858152602001848152602001600115158152506009600083815260200190815260200160002060008201518160000190816114b19190613f5f565b5060208201518160010190816114c79190613f5f565b5060408201518160020190816114dd9190613f5f565b5060608201518160030190816114f39190613f5f565b5060808201518160040190816115099190613f5f565b5060a08201518160050160006101000a81548160ff0219169083151502179055509050506001600a8460405161153f9190613b95565b908152602001604051809103902060006101000a81548160ff021916908315150217905550807f95ad50d6596337460bdce4b8db70313463e0615be9266b573e781327aef44e0988888860405161159893929190614031565b60405180910390a2809150506115ac611e16565b9695505050505050565b6000600560008473ffffffffffffffffffffffffffffffffffffffff1673ffffffffffffffffffffffffffffffffffffffff16815260200190815260200160002060008373ffffffffffffffffffffffffffffffffffffffff1673ffffffffffffffffffffffffffffffffffffffff16815260200190815260200160002060009054906101000a900460ff16905092915050565b611652611d08565b600073ffffffffffffffffffffffffffffffffffffffff168173ffffffffffffffffffffffffffffffffffffffff16036116c1576040517f08c379a00000000000000000000000000000000000000000000000000000000081526004016116b8906140ef565b60405180910390fd5b6116ca816122f7565b50565b60606116d7611d08565b6116df611d86565b6000875190508651811480156116f55750855181145b80156117015750845181145b801561170d5750835181145b80156117195750825181145b611758576040517f08c379a000000000000000000000000000000000000000000000000000000000815260040161174f9061415b565b60405180910390fd5b60008167ffffffffffffffff81111561177457611773612cbd565b5b6040519080825280602002602001820160405280156117a25781602001602082028036833780820191505090505b50905060005b82811015611c4f57600a8582815181106117c5576117c461417b565b5b60200260200101516040516117da9190613b95565b908152602001604051809103902060009054906101000a900460ff1615611836576040517f08c379a000000000000000000000000000000000000000000000000000000000815260040161182d90613bf8565b60405180910390fd5b600089828151811061184b5761184a61417b565b5b60200260200101515111611894576040517f08c379a000000000000000000000000000000000000000000000000000000000815260040161188b90613c64565b60405180910390fd5b60008882815181106118a9576118a861417b565b5b602002602001015151116118f2576040517f08c379a00000000000000000000000000000000000000000000000000000000081526004016118e990613cd0565b60405180910390fd5b60008782815181106119075761190661417b565b5b60200260200101515111611950576040517f08c379a000000000000000000000000000000000000000000000000000000000815260040161194790613d3c565b60405180910390fd5b600a8682815181106119655761196461417b565b5b602002602001015151146119ae576040517f08c379a00000000000000000000000000000000000000000000000000000000081526004016119a590613da8565b60405180910390fd5b6119b86008612585565b60006119c4600861259b565b9050808383815181106119da576119d961417b565b5b602002602001018181525050611a0a8b83815181106119fc576119fb61417b565b5b6020026020010151826125a9565b6040518060c001604052808b8481518110611a2857611a2761417b565b5b602002602001015181526020018a8481518110611a4857611a4761417b565b5b60200260200101518152602001898481518110611a6857611a6761417b565b5b60200260200101518152602001888481518110611a8857611a8761417b565b5b60200260200101518152602001878481518110611aa857611aa761417b565b5b6020026020010151815260200160011515815250600960008381526020019081526020016000206000820151816000019081611ae49190613f5f565b506020820151816001019081611afa9190613f5f565b506040820151816002019081611b109190613f5f565b506060820151816003019081611b269190613f5f565b506080820151816004019081611b3c9190613f5f565b5060a08201518160050160006101000a81548160ff0219169083151502179055509050506001600a878481518110611b7757611b7661417b565b5b6020026020010151604051611b8c9190613b95565b908152602001604051809103902060006101000a81548160ff021916908315150217905550807f95ad50d6596337460bdce4b8db70313463e0615be9266b573e781327aef44e098b8481518110611be657611be561417b565b5b60200260200101518b8581518110611c0157611c0061417b565b5b60200260200101518b8681518110611c1c57611c1b61417b565b5b6020026020010151604051611c3393929190614031565b60405180910390a2508080611c47906141d9565b9150506117a8565b507f5650e7082b56dbc15b03f079b84889a5d5cae649ed33025af9486a0b93063f6882604051611c7f9190613011565b60405180910390a18092505050611c94611e16565b9695505050505050565b60007f01ffc9a7000000000000000000000000000000000000000000000000000000007bffffffffffffffffffffffffffffffffffffffffffffffffffffffff1916827bffffffffffffffffffffffffffffffffffffffffffffffffffffffff1916149050919050565b611d10611e6b565b73ffffffffffffffffffffffffffffffffffffffff16611d2e6110ef565b73ffffffffffffffffffffffffffffffffffffffff1614611d84576040517f08c379a0000000000000000000000000000000000000000000000000000000008152600401611d7b9061426d565b60405180910390fd5b565b600260075403611dcb576040517f08c379a0000000000000000000000000000000000000000000000000000000008152600401611dc2906142d9565b60405180910390fd5b6002600781905550565b60008073ffffffffffffffffffffffffffffffffffffffff16611df7836122ba565b73ffffffffffffffffffffffffffffffffffffffff1614159050919050565b6001600781905550565b611e2981611dd5565b611e68576040517f08c379a0000000000000000000000000000000000000000000000000000000008152600401611e5f906139a1565b60405180910390fd5b50565b600033905090565b816004600083815260200190815260200160002060006101000a81548173ffffffffffffffffffffffffffffffffffffffff021916908373ffffffffffffffffffffffffffffffffffffffff160217905550808273ffffffffffffffffffffffffffffffffffffffff16611ee683610cad565b73ffffffffffffffffffffffffffffffffffffffff167f8c5be1e5ebec7d5bd14f71427d1e84f3dd0314c0f7b2291e5b200ac8c7c3b92560405160405180910390a45050565b600080611f3883610cad565b90508073ffffffffffffffffffffffffffffffffffffffff168473ffffffffffffffffffffffffffffffffffffffff161480611f7a5750611f7981856115b6565b5b80611fb857508373ffffffffffffffffffffffffffffffffffffffff16611fa0846106f2565b73ffffffffffffffffffffffffffffffffffffffff16145b91505092915050565b8273ffffffffffffffffffffffffffffffffffffffff16611fe182610cad565b73ffffffffffffffffffffffffffffffffffffffff1614612037576040517f08c379a000000000000000000000000000000000000000000000000000000000815260040161202e9061436b565b60405180910390fd5b600073ffffffffffffffffffffffffffffffffffffffff168273ffffffffffffffffffffffffffffffffffffffff16036120a6576040517f08c379a000000000000000000000000000000000000000000000000000000000815260040161209d906143fd565b60405180910390fd5b6120b383838360016127c6565b8273ffffffffffffffffffffffffffffffffffffffff166120d382610cad565b73ffffffffffffffffffffffffffffffffffffffff1614612129576040517f08c379a00000000000000000000000000000000000000000000000000000000081526004016121209061436b565b60405180910390fd5b6004600082815260200190815260200160002060006101000a81549073ffffffffffffffffffffffffffffffffffffffff02191690556001600360008573ffffffffffffffffffffffffffffffffffffffff1673ffffffffffffffffffffffffffffffffffffffff168152602001908152602001600020600082825403925050819055506001600360008473ffffffffffffffffffffffffffffffffffffffff1673ffffffffffffffffffffffffffffffffffffffff16815260200190815260200160002060008282540192505081905550816002600083815260200190815260200160002060006101000a81548173ffffffffffffffffffffffffffffffffffffffff021916908373ffffffffffffffffffffffffffffffffffffffff160217905550808273ffffffffffffffffffffffffffffffffffffffff168473ffffffffffffffffffffffffffffffffffffffff167fddf252ad1be2c89b69c2b068fc378daa952ba7f163c4a11628f55a4df523b3ef60405160405180910390a46122b583838360016127cc565b505050565b60006002600083815260200190815260200160002060009054906101000a900473ffffffffffffffffffffffffffffffffffffffff169050919050565b6000600660009054906101000a900473ffffffffffffffffffffffffffffffffffffffff16905081600660006101000a81548173ffffffffffffffffffffffffffffffffffffffff021916908373ffffffffffffffffffffffffffffffffffffffff1602179055508173ffffffffffffffffffffffffffffffffffffffff168173ffffffffffffffffffffffffffffffffffffffff167f8be0079c531659141344cd1fd0a4f28419497f9722a3daafe3b4186f6b6457e060405160405180910390a35050565b8173ffffffffffffffffffffffffffffffffffffffff168373ffffffffffffffffffffffffffffffffffffffff160361242b576040517f08c379a000000000000000000000000000000000000000000000000000000000815260040161242290614469565b60405180910390fd5b80600560008573ffffffffffffffffffffffffffffffffffffffff1673ffffffffffffffffffffffffffffffffffffffff16815260200190815260200160002060008473ffffffffffffffffffffffffffffffffffffffff1673ffffffffffffffffffffffffffffffffffffffff16815260200190815260200160002060006101000a81548160ff0219169083151502179055508173ffffffffffffffffffffffffffffffffffffffff168373ffffffffffffffffffffffffffffffffffffffff167f17307eab39ab6107e8899845ad3d59bd9653f200f220920489ca2b5937696c318360405161251c9190612a68565b60405180910390a3505050565b612534848484611fc1565b612540848484846127d2565b61257f576040517f08c379a0000000000000000000000000000000000000000000000000000000008152600401612576906144fb565b60405180910390fd5b50505050565b6001816000016000828254019250508190555050565b600081600001549050919050565b600073ffffffffffffffffffffffffffffffffffffffff168273ffffffffffffffffffffffffffffffffffffffff1603612618576040517f08c379a000000000000000000000000000000000000000000000000000000000815260040161260f90614567565b60405180910390fd5b61262181611dd5565b15612661576040517f08c379a0000000000000000000000000000000000000000000000000000000008152600401612658906145d3565b60405180910390fd5b61266f6000838360016127c6565b61267881611dd5565b156126b8576040517f08c379a00000000000000000000000000000000000000000000000000000000081526004016126af906145d3565b60405180910390fd5b6001600360008473ffffffffffffffffffffffffffffffffffffffff1673ffffffffffffffffffffffffffffffffffffffff16815260200190815260200160002060008282540192505081905550816002600083815260200190815260200160002060006101000a81548173ffffffffffffffffffffffffffffffffffffffff021916908373ffffffffffffffffffffffffffffffffffffffff160217905550808273ffffffffffffffffffffffffffffffffffffffff16600073ffffffffffffffffffffffffffffffffffffffff167fddf252ad1be2c89b69c2b068fc378daa952ba7f163c4a11628f55a4df523b3ef60405160405180910390a46127c26000838360016127cc565b5050565b50505050565b50505050565b60006127f38473ffffffffffffffffffffffffffffffffffffffff16612959565b1561294c578373ffffffffffffffffffffffffffffffffffffffff1663150b7a0261281c611e6b565b8786866040518563ffffffff1660e01b815260040161283e9493929190614648565b6020604051808303816000875af192505050801561287a57506040513d601f19601f8201168201806040525081019061287791906146a9565b60015b6128fc573d80600081146128aa576040519150601f19603f3d011682016040523d82523d6000602084013e6128af565b606091505b5060008151036128f4576040517f08c379a00000000000000000000000000000000000000000000000000000000081526004016128eb906144fb565b60405180910390fd5b805181602001fd5b63150b7a0260e01b7bffffffffffffffffffffffffffffffffffffffffffffffffffffffff1916817bffffffffffffffffffffffffffffffffffffffffffffffffffffffff191614915050612951565b600190505b949350505050565b6000808273ffffffffffffffffffffffffffffffffffffffff163b119050919050565b6040518060c0016040528060608152602001606081526020016060815260200160608152602001606081526020016000151581525090565b6000604051905090565b600080fd5b600080fd5b60007fffffffff0000000000000000000000000000000000000000000000000000000082169050919050565b6129fd816129c8565b8114612a0857600080fd5b50565b600081359050612a1a816129f4565b92915050565b600060208284031215612a3657612a356129be565b5b6000612a4484828501612a0b565b91505092915050565b60008115159050919050565b612a6281612a4d565b82525050565b6000602082019050612a7d6000830184612a59565b92915050565b6000819050919050565b612a9681612a83565b8114612aa157600080fd5b50565b600081359050612ab381612a8d565b92915050565b600060208284031215612acf57612ace6129be565b5b6000612add84828501612aa4565b91505092915050565b600081519050919050565b600082825260208201905092915050565b60005b83811015612b20578082015181840152602081019050612b05565b60008484015250505050565b6000601f19601f8301169050919050565b6000612b4882612ae6565b612b528185612af1565b9350612b62818560208601612b02565b612b6b81612b2c565b840191505092915050565b60006020820190508181036000830152612b908184612b3d565b905092915050565b600073ffffffffffffffffffffffffffffffffffffffff82169050919050565b6000612bc382612b98565b9050919050565b612bd381612bb8565b82525050565b6000602082019050612bee6000830184612bca565b92915050565b612bfd81612bb8565b8114612c0857600080fd5b50565b600081359050612c1a81612bf4565b92915050565b60008060408385031215612c3757612c366129be565b5b6000612c4585828601612c0b565b9250506020612c5685828601612aa4565b9150509250929050565b600080600060608486031215612c7957612c786129be565b5b6000612c8786828701612c0b565b9350506020612c9886828701612c0b565b9250506040612ca986828701612aa4565b9150509250925092565b600080fd5b600080fd5b7f4e487b7100000000000000000000000000000000000000000000000000000000600052604160045260246000fd5b612cf582612b2c565b810181811067ffffffffffffffff82111715612d1457612d13612cbd565b5b80604052505050565b6000612d276129b4565b9050612d338282612cec565b919050565b600067ffffffffffffffff821115612d5357612d52612cbd565b5b612d5c82612b2c565b9050602081019050919050565b82818337600083830152505050565b6000612d8b612d8684612d38565b612d1d565b905082815260208101848484011115612da757612da6612cb8565b5b612db2848285612d69565b509392505050565b600082601f830112612dcf57612dce612cb3565b5b8135612ddf848260208601612d78565b91505092915050565b600060208284031215612dfe57612dfd6129be565b5b600082013567ffffffffffffffff811115612e1c57612e1b6129c3565b5b612e2884828501612dba565b91505092915050565b600082825260208201905092915050565b6000612e4d82612ae6565b612e578185612e31565b9350612e67818560208601612b02565b612e7081612b2c565b840191505092915050565b612e8481612a4d565b82525050565b600060c0830160008301518482036000860152612ea78282612e42565b91505060208301518482036020860152612ec18282612e42565b91505060408301518482036040860152612edb8282612e42565b91505060608301518482036060860152612ef58282612e42565b91505060808301518482036080860152612f0f8282612e42565b91505060a0830151612f2460a0860182612e7b565b508091505092915050565b60006020820190508181036000830152612f498184612e8a565b905092915050565b600060c0820190508181036000830152612f6b8189612b3d565b90508181036020830152612f7f8188612b3d565b90508181036040830152612f938187612b3d565b90508181036060830152612fa78186612b3d565b90508181036080830152612fbb8185612b3d565b9050612fca60a0830184612a59565b979650505050505050565b600060208284031215612feb57612fea6129be565b5b6000612ff984828501612c0b565b91505092915050565b61300b81612a83565b82525050565b60006020820190506130266000830184613002565b92915050565b61303581612a4d565b811461304057600080fd5b50565b6000813590506130528161302c565b92915050565b6000806040838503121561306f5761306e6129be565b5b600061307d85828601612c0b565b925050602061308e85828601613043565b9150509250929050565b600067ffffffffffffffff8211156130b3576130b2612cbd565b5b6130bc82612b2c565b9050602081019050919050565b60006130dc6130d784613098565b612d1d565b9050828152602081018484840111156130f8576130f7612cb8565b5b613103848285612d69565b509392505050565b600082601f8301126131205761311f612cb3565b5b81356131308482602086016130c9565b91505092915050565b60008060008060808587031215613153576131526129be565b5b600061316187828801612c0b565b945050602061317287828801612c0b565b935050604061318387828801612aa4565b925050606085013567ffffffffffffffff8111156131a4576131a36129c3565b5b6131b08782880161310b565b91505092959194509250565b60008060008060008060c087890312156131d9576131d86129be565b5b60006131e789828a01612c0b565b965050602087013567ffffffffffffffff811115613208576132076129c3565b5b61321489828a01612dba565b955050604087013567ffffffffffffffff811115613235576132346129c3565b5b61324189828a01612dba565b945050606087013567ffffffffffffffff811115613262576132616129c3565b5b61326e89828a01612dba565b935050608087013567ffffffffffffffff81111561328f5761328e6129c3565b5b61329b89828a01612dba565b92505060a087013567ffffffffffffffff8111156132bc576132bb6129c3565b5b6132c889828a01612dba565b9150509295509295509295565b600080604083850312156132ec576132eb6129be565b5b60006132fa85828601612c0b565b925050602061330b85828601612c0b565b9150509250929050565b600067ffffffffffffffff8211156133305761332f612cbd565b5b602082029050602081019050919050565b600080fd5b600061335961335484613315565b612d1d565b9050808382526020820190506020840283018581111561337c5761337b613341565b5b835b818110156133a557806133918882612c0b565b84526020840193505060208101905061337e565b5050509392505050565b600082601f8301126133c4576133c3612cb3565b5b81356133d4848260208601613346565b91505092915050565b600067ffffffffffffffff8211156133f8576133f7612cbd565b5b602082029050602081019050919050565b600061341c613417846133dd565b612d1d565b9050808382526020820190506020840283018581111561343f5761343e613341565b5b835b8181101561348657803567ffffffffffffffff81111561346457613463612cb3565b5b8086016134718982612dba565b85526020850194505050602081019050613441565b5050509392505050565b600082601f8301126134a5576134a4612cb3565b5b81356134b5848260208601613409565b91505092915050565b60008060008060008060c087890312156134db576134da6129be565b5b600087013567ffffffffffffffff8111156134f9576134f86129c3565b5b61350589828a016133af565b965050602087013567ffffffffffffffff811115613526576135256129c3565b5b61353289828a01613490565b955050604087013567ffffffffffffffff811115613553576135526129c3565b5b61355f89828a01613490565b945050606087013567ffffffffffffffff8111156135805761357f6129c3565b5b61358c89828a01613490565b935050608087013567ffffffffffffffff8111156135ad576135ac6129c3565b5b6135b989828a01613490565b92505060a087013567ffffffffffffffff8111156135da576135d96129c3565b5b6135e689828a01613490565b9150509295509295509295565b600081519050919050565b600082825260208201905092915050565b6000819050602082019050919050565b61362881612a83565b82525050565b600061363a838361361f565b60208301905092915050565b6000602082019050919050565b600061365e826135f3565b61366881856135fe565b93506136738361360f565b8060005b838110156136a457815161368b888261362e565b975061369683613646565b925050600181019050613677565b5085935050505092915050565b600060208201905081810360008301526136cb8184613653565b905092915050565b7f436572746966696361746520646f6573206e6f74206578697374000000000000600082015250565b6000613709601a83612af1565b9150613714826136d3565b602082019050919050565b60006020820190508181036000830152613738816136fc565b9050919050565b7f4e487b7100000000000000000000000000000000000000000000000000000000600052602260045260246000fd5b6000600282049050600182168061378657607f821691505b6020821081036137995761379861373f565b5b50919050565b7f4552433732313a20617070726f76616c20746f2063757272656e74206f776e6560008201527f7200000000000000000000000000000000000000000000000000000000000000602082015250565b60006137fb602183612af1565b91506138068261379f565b604082019050919050565b6000602082019050818103600083015261382a816137ee565b9050919050565b7f4552433732313a20617070726f76652063616c6c6572206973206e6f7420746f60008201527f6b656e206f776e6572206f7220617070726f76656420666f7220616c6c000000602082015250565b600061388d603d83612af1565b915061389882613831565b604082019050919050565b600060208201905081810360008301526138bc81613880565b9050919050565b7f4552433732313a2063616c6c6572206973206e6f7420746f6b656e206f776e6560008201527f72206f7220617070726f76656400000000000000000000000000000000000000602082015250565b600061391f602d83612af1565b915061392a826138c3565b604082019050919050565b6000602082019050818103600083015261394e81613912565b9050919050565b7f4552433732313a20696e76616c696420746f6b656e2049440000000000000000600082015250565b600061398b601883612af1565b915061399682613955565b602082019050919050565b600060208201905081810360008301526139ba8161397e565b9050919050565b7f4552433732313a2061646472657373207a65726f206973206e6f74206120766160008201527f6c6964206f776e65720000000000000000000000000000000000000000000000602082015250565b6000613a1d602983612af1565b9150613a28826139c1565b604082019050919050565b60006020820190508181036000830152613a4c81613a10565b9050919050565b600081905092915050565b7f697066733a2f2f00000000000000000000000000000000000000000000000000600082015250565b6000613a94600783613a53565b9150613a9f82613a5e565b600782019050919050565b60008190508160005260206000209050919050565b60008154613acc8161376e565b613ad68186613a53565b94506001821660008114613af15760018114613b0657613b39565b60ff1983168652811515820286019350613b39565b613b0f85613aaa565b60005b83811015613b3157815481890152600182019150602081019050613b12565b838801955050505b50505092915050565b6000613b4d82613a87565b9150613b598284613abf565b915081905092915050565b6000613b6f82612ae6565b613b798185613a53565b9350613b89818560208601612b02565b80840191505092915050565b6000613ba18284613b64565b915081905092915050565b7f49504653206861736820616c7265616479207573656400000000000000000000600082015250565b6000613be2601683612af1565b9150613bed82613bac565b602082019050919050565b60006020820190508181036000830152613c1181613bd5565b9050919050565b7f53747564656e74206e616d652063616e6e6f7420626520656d70747900000000600082015250565b6000613c4e601c83612af1565b9150613c5982613c18565b602082019050919050565b60006020820190508181036000830152613c7d81613c41565b9050919050565b7f4465677265652063616e6e6f7420626520656d70747900000000000000000000600082015250565b6000613cba601683612af1565b9150613cc582613c84565b602082019050919050565b60006020820190508181036000830152613ce981613cad565b9050919050565b7f496e737469747574696f6e2063616e6e6f7420626520656d7074790000000000600082015250565b6000613d26601b83612af1565b9150613d3182613cf0565b602082019050919050565b60006020820190508181036000830152613d5581613d19565b9050919050565b7f55736520595959592d4d4d2d444420666f726d61740000000000000000000000600082015250565b6000613d92601583612af1565b9150613d9d82613d5c565b602082019050919050565b60006020820190508181036000830152613dc181613d85565b9050919050565b60006020601f8301049050919050565b600082821b905092915050565b600060088302613e157fffffffffffffffffffffffffffffffffffffffffffffffffffffffffffffffff82613dd8565b613e1f8683613dd8565b95508019841693508086168417925050509392505050565b6000819050919050565b6000613e5c613e57613e5284612a83565b613e37565b612a83565b9050919050565b6000819050919050565b613e7683613e41565b613e8a613e8282613e63565b848454613de5565b825550505050565b600090565b613e9f613e92565b613eaa818484613e6d565b505050565b5b81811015613ece57613ec3600082613e97565b600181019050613eb0565b5050565b601f821115613f1357613ee481613aaa565b613eed84613dc8565b81016020851015613efc578190505b613f10613f0885613dc8565b830182613eaf565b50505b505050565b600082821c905092915050565b6000613f3660001984600802613f18565b1980831691505092915050565b6000613f4f8383613f25565b9150826002028217905092915050565b613f6882612ae6565b67ffffffffffffffff811115613f8157613f80612cbd565b5b613f8b825461376e565b613f96828285613ed2565b600060209050601f831160018114613fc95760008415613fb7578287015190505b613fc18582613f43565b865550614029565b601f198416613fd786613aaa565b60005b82811015613fff57848901518255600182019150602085019450602081019050613fda565b8683101561401c5784890151614018601f891682613f25565b8355505b6001600288020188555050505b505050505050565b6000606082019050818103600083015261404b8186612b3d565b9050818103602083015261405f8185612b3d565b905081810360408301526140738184612b3d565b9050949350505050565b7f4f776e61626c653a206e6577206f776e657220697320746865207a65726f206160008201527f6464726573730000000000000000000000000000000000000000000000000000602082015250565b60006140d9602683612af1565b91506140e48261407d565b604082019050919050565b60006020820190508181036000830152614108816140cc565b9050919050565b7f4172726179206c656e67746873206d757374206d617463680000000000000000600082015250565b6000614145601883612af1565b91506141508261410f565b602082019050919050565b6000602082019050818103600083015261417481614138565b9050919050565b7f4e487b7100000000000000000000000000000000000000000000000000000000600052603260045260246000fd5b7f4e487b7100000000000000000000000000000000000000000000000000000000600052601160045260246000fd5b60006141e482612a83565b91507fffffffffffffffffffffffffffffffffffffffffffffffffffffffffffffffff8203614216576142156141aa565b5b600182019050919050565b7f4f776e61626c653a2063616c6c6572206973206e6f7420746865206f776e6572600082015250565b6000614257602083612af1565b915061426282614221565b602082019050919050565b600060208201905081810360008301526142868161424a565b9050919050565b7f5265656e7472616e637947756172643a207265656e7472616e742063616c6c00600082015250565b60006142c3601f83612af1565b91506142ce8261428d565b602082019050919050565b600060208201905081810360008301526142f2816142b6565b9050919050565b7f4552433732313a207472616e736665722066726f6d20696e636f72726563742060008201527f6f776e6572000000000000000000000000000000000000000000000000000000602082015250565b6000614355602583612af1565b9150614360826142f9565b604082019050919050565b6000602082019050818103600083015261438481614348565b9050919050565b7f4552433732313a207472616e7366657220746f20746865207a65726f2061646460008201527f7265737300000000000000000000000000000000000000000000000000000000602082015250565b60006143e7602483612af1565b91506143f28261438b565b604082019050919050565b60006020820190508181036000830152614416816143da565b9050919050565b7f4552433732313a20617070726f766520746f2063616c6c657200000000000000600082015250565b6000614453601983612af1565b915061445e8261441d565b602082019050919050565b6000602082019050818103600083015261448281614446565b9050919050565b7f4552433732313a207472616e7366657220746f206e6f6e20455243373231526560008201527f63656976657220696d706c656d656e7465720000000000000000000000000000602082015250565b60006144e5603283612af1565b91506144f082614489565b604082019050919050565b60006020820190508181036000830152614514816144d8565b9050919050565b7f4552433732313a206d696e7420746f20746865207a65726f2061646472657373600082015250565b6000614551602083612af1565b915061455c8261451b565b602082019050919050565b6000602082019050818103600083015261458081614544565b9050919050565b7f4552433732313a20746f6b656e20616c7265616479206d696e74656400000000600082015250565b60006145bd601c83612af1565b91506145c882614587565b602082019050919050565b600060208201905081810360008301526145ec816145b0565b9050919050565b600081519050919050565b600082825260208201905092915050565b600061461a826145f3565b61462481856145fe565b9350614634818560208601612b02565b61463d81612b2c565b840191505092915050565b600060808201905061465d6000830187612bca565b61466a6020830186612bca565b6146776040830185613002565b8181036060830152614689818461460f565b905095945050505050565b6000815190506146a3816129f4565b92915050565b6000602082840312156146bf576146be6129be565b5b60006146cd84828501614694565b9150509291505056fea264697066735822122001619b20415e111ec2492a87cad764e3e9febd0664232323f47f00c4205f6c3e64736f6c63430008130033",
  "linkReferences": {},
  "deployedLinkReferences": {}
}